{
  "_format": "hh-sol-artifact-1",
  "contractName": "GiftNFT",
  "sourceName": "contracts/GiftNFT.sol",
  "abi": [
    {
      "inputs": [],
      "stateMutability": "nonpayable",
      "type": "constructor"
    },
    {
      "anonymous": false,
      "inputs": [
        {
          "indexed": true,
          "internalType": "address",
          "name": "owner",
          "type": "address"
        },
        {
          "indexed": true,
          "internalType": "address",
          "name": "approved",
          "type": "address"
        },
        {
          "indexed": true,
          "internalType": "uint256",
          "name": "tokenId",
          "type": "uint256"
        }
      ],
      "name": "Approval",
      "type": "event"
    },
    {
      "anonymous": false,
      "inputs": [
        {
          "indexed": true,
          "internalType": "address",
          "name": "owner",
          "type": "address"
        },
        {
          "indexed": true,
          "internalType": "address",
          "name": "operator",
          "type": "address"
        },
        {
          "indexed": false,
          "internalType": "bool",
          "name": "approved",
          "type": "bool"
        }
      ],
      "name": "ApprovalForAll",
      "type": "event"
    },
    {
      "anonymous": false,
      "inputs": [
        {
          "indexed": false,
          "internalType": "address",
          "name": "sender",
          "type": "address"
        },
        {
          "indexed": false,
          "internalType": "uint256",
          "name": "tokenId",
          "type": "uint256"
        }
      ],
      "name": "NewGiftNFTMinted",
      "type": "event"
    },
    {
      "anonymous": false,
      "inputs": [
        {
          "indexed": true,
          "internalType": "address",
          "name": "from",
          "type": "address"
        },
        {
          "indexed": true,
          "internalType": "address",
          "name": "to",
          "type": "address"
        },
        {
          "indexed": true,
          "internalType": "uint256",
          "name": "tokenId",
          "type": "uint256"
        }
      ],
      "name": "Transfer",
      "type": "event"
    },
    {
      "inputs": [
        {
          "internalType": "address",
          "name": "to",
          "type": "address"
        },
        {
          "internalType": "uint256",
          "name": "tokenId",
          "type": "uint256"
        }
      ],
      "name": "approve",
      "outputs": [],
      "stateMutability": "nonpayable",
      "type": "function"
    },
    {
      "inputs": [
        {
          "internalType": "address",
          "name": "owner",
          "type": "address"
        }
      ],
      "name": "balanceOf",
      "outputs": [
        {
          "internalType": "uint256",
          "name": "",
          "type": "uint256"
        }
      ],
      "stateMutability": "view",
      "type": "function"
    },
    {
      "inputs": [
        {
          "internalType": "uint256",
          "name": "tokenId",
          "type": "uint256"
        }
      ],
      "name": "getApproved",
      "outputs": [
        {
          "internalType": "address",
          "name": "",
          "type": "address"
        }
      ],
      "stateMutability": "view",
      "type": "function"
    },
    {
      "inputs": [
        {
          "internalType": "address",
          "name": "owner",
          "type": "address"
        },
        {
          "internalType": "address",
          "name": "operator",
          "type": "address"
        }
      ],
      "name": "isApprovedForAll",
      "outputs": [
        {
          "internalType": "bool",
          "name": "",
          "type": "bool"
        }
      ],
      "stateMutability": "view",
      "type": "function"
    },
    {
      "inputs": [
        {
          "internalType": "address",
          "name": "tokenReceiver",
          "type": "address"
        },
        {
          "internalType": "string",
          "name": "url",
          "type": "string"
        },
        {
          "internalType": "string",
          "name": "name",
          "type": "string"
        }
      ],
      "name": "makeGiftNFT",
      "outputs": [],
      "stateMutability": "nonpayable",
      "type": "function"
    },
    {
      "inputs": [],
      "name": "name",
      "outputs": [
        {
          "internalType": "string",
          "name": "",
          "type": "string"
        }
      ],
      "stateMutability": "view",
      "type": "function"
    },
    {
      "inputs": [
        {
          "internalType": "uint256",
          "name": "tokenId",
          "type": "uint256"
        }
      ],
      "name": "ownerOf",
      "outputs": [
        {
          "internalType": "address",
          "name": "",
          "type": "address"
        }
      ],
      "stateMutability": "view",
      "type": "function"
    },
    {
      "inputs": [
        {
          "internalType": "address",
          "name": "from",
          "type": "address"
        },
        {
          "internalType": "address",
          "name": "to",
          "type": "address"
        },
        {
          "internalType": "uint256",
          "name": "tokenId",
          "type": "uint256"
        }
      ],
      "name": "safeTransferFrom",
      "outputs": [],
      "stateMutability": "nonpayable",
      "type": "function"
    },
    {
      "inputs": [
        {
          "internalType": "address",
          "name": "from",
          "type": "address"
        },
        {
          "internalType": "address",
          "name": "to",
          "type": "address"
        },
        {
          "internalType": "uint256",
          "name": "tokenId",
          "type": "uint256"
        },
        {
          "internalType": "bytes",
          "name": "_data",
          "type": "bytes"
        }
      ],
      "name": "safeTransferFrom",
      "outputs": [],
      "stateMutability": "nonpayable",
      "type": "function"
    },
    {
      "inputs": [
        {
          "internalType": "address",
          "name": "operator",
          "type": "address"
        },
        {
          "internalType": "bool",
          "name": "approved",
          "type": "bool"
        }
      ],
      "name": "setApprovalForAll",
      "outputs": [],
      "stateMutability": "nonpayable",
      "type": "function"
    },
    {
      "inputs": [
        {
          "internalType": "bytes4",
          "name": "interfaceId",
          "type": "bytes4"
        }
      ],
      "name": "supportsInterface",
      "outputs": [
        {
          "internalType": "bool",
          "name": "",
          "type": "bool"
        }
      ],
      "stateMutability": "view",
      "type": "function"
    },
    {
      "inputs": [],
      "name": "symbol",
      "outputs": [
        {
          "internalType": "string",
          "name": "",
          "type": "string"
        }
      ],
      "stateMutability": "view",
      "type": "function"
    },
    {
      "inputs": [
        {
          "internalType": "uint256",
          "name": "tokenId",
          "type": "uint256"
        }
      ],
      "name": "tokenURI",
      "outputs": [
        {
          "internalType": "string",
          "name": "",
          "type": "string"
        }
      ],
      "stateMutability": "view",
      "type": "function"
    },
    {
      "inputs": [
        {
          "internalType": "address",
          "name": "from",
          "type": "address"
        },
        {
          "internalType": "address",
          "name": "to",
          "type": "address"
        },
        {
          "internalType": "uint256",
          "name": "tokenId",
          "type": "uint256"
        }
      ],
      "name": "transferFrom",
      "outputs": [],
      "stateMutability": "nonpayable",
      "type": "function"
    }
  ],
  "bytecode": "0x60806040523480156200001157600080fd5b506040518060400160405280600c81526020017f4769667443617264734e465400000000000000000000000000000000000000008152506040518060400160405280600581526020017f4341524453000000000000000000000000000000000000000000000000000000815250816000908051906020019062000096929190620001cf565b508060019080519060200190620000af929190620001cf565b505050620000fd6040518060400160405280601e81526020017f54686973206973206d79204e465420636f6e74726163742e20576f61682100008152506200010360201b62000c451760201c565b620003ac565b620001a3816040516024016200011a9190620002c0565b6040516020818303038152906040527f41304fac000000000000000000000000000000000000000000000000000000007bffffffffffffffffffffffffffffffffffffffffffffffffffffffff19166020820180517bffffffffffffffffffffffffffffffffffffffffffffffffffffffff8381831617835250505050620001a660201b60201c565b50565b60008151905060006a636f6e736f6c652e6c6f679050602083016000808483855afa5050505050565b828054620001dd9062000336565b90600052602060002090601f0160209004810192826200020157600085556200024d565b82601f106200021c57805160ff19168380011785556200024d565b828001600101855582156200024d579182015b828111156200024c5782518255916020019190600101906200022f565b5b5090506200025c919062000260565b5090565b5b808211156200027b57600081600090555060010162000261565b5090565b60006200028c82620002e4565b620002988185620002ef565b9350620002aa81856020860162000300565b620002b5816200039b565b840191505092915050565b60006020820190508181036000830152620002dc81846200027f565b905092915050565b600081519050919050565b600082825260208201905092915050565b60005b838110156200032057808201518184015260208101905062000303565b8381111562000330576000848401525b50505050565b600060028204905060018216806200034f57607f821691505b602082108114156200036657620003656200036c565b5b50919050565b7f4e487b7100000000000000000000000000000000000000000000000000000000600052602260045260246000fd5b6000601f19601f8301169050919050565b61321880620003bc6000396000f3fe608060405234801561001057600080fd5b50600436106100ea5760003560e01c80636747ddc31161008c578063a22cb46511610066578063a22cb4651461025b578063b88d4fde14610277578063c87b56dd14610293578063e985e9c5146102c3576100ea565b80636747ddc3146101f157806370a082311461020d57806395d89b411461023d576100ea565b8063095ea7b3116100c8578063095ea7b31461016d57806323b872dd1461018957806342842e0e146101a55780636352211e146101c1576100ea565b806301ffc9a7146100ef57806306fdde031461011f578063081812fc1461013d575b600080fd5b610109600480360381019061010491906120f9565b6102f3565b6040516101169190612a73565b60405180910390f35b6101276103d5565b6040516101349190612a8e565b60405180910390f35b6101576004803603810190610152919061214b565b610467565b60405161016491906129e3565b60405180910390f35b610187600480360381019061018291906120bd565b6104ec565b005b6101a3600480360381019061019e9190611f38565b610604565b005b6101bf60048036038101906101ba9190611f38565b610664565b005b6101db60048036038101906101d6919061214b565b610684565b6040516101e891906129e3565b60405180910390f35b61020b6004803603810190610206919061203e565b610736565b005b61022760048036038101906102229190611ed3565b61089d565b6040516102349190612cee565b60405180910390f35b610245610955565b6040516102529190612a8e565b60405180910390f35b61027560048036038101906102709190612002565b6109e7565b005b610291600480360381019061028c9190611f87565b6109fd565b005b6102ad60048036038101906102a8919061214b565b610a5f565b6040516102ba9190612a8e565b60405180910390f35b6102dd60048036038101906102d89190611efc565b610bb1565b6040516102ea9190612a73565b60405180910390f35b60007f80ac58cd000000000000000000000000000000000000000000000000000000007bffffffffffffffffffffffffffffffffffffffffffffffffffffffff1916827bffffffffffffffffffffffffffffffffffffffffffffffffffffffff191614806103be57507f5b5e139f000000000000000000000000000000000000000000000000000000007bffffffffffffffffffffffffffffffffffffffffffffffffffffffff1916827bffffffffffffffffffffffffffffffffffffffffffffffffffffffff1916145b806103ce57506103cd82610cde565b5b9050919050565b6060600080546103e490612fa8565b80601f016020809104026020016040519081016040528092919081815260200182805461041090612fa8565b801561045d5780601f106104325761010080835404028352916020019161045d565b820191906000526020600020905b81548152906001019060200180831161044057829003601f168201915b5050505050905090565b600061047282610d48565b6104b1576040517f08c379a00000000000000000000000000000000000000000000000000000000081526004016104a890612c4e565b60405180910390fd5b6004600083815260200190815260200160002060009054906101000a900473ffffffffffffffffffffffffffffffffffffffff169050919050565b60006104f782610684565b90508073ffffffffffffffffffffffffffffffffffffffff168373ffffffffffffffffffffffffffffffffffffffff161415610568576040517f08c379a000000000000000000000000000000000000000000000000000000000815260040161055f90612cae565b60405180910390fd5b8073ffffffffffffffffffffffffffffffffffffffff16610587610db4565b73ffffffffffffffffffffffffffffffffffffffff1614806105b657506105b5816105b0610db4565b610bb1565b5b6105f5576040517f08c379a00000000000000000000000000000000000000000000000000000000081526004016105ec90612b8e565b60405180910390fd5b6105ff8383610dbc565b505050565b61061561060f610db4565b82610e75565b610654576040517f08c379a000000000000000000000000000000000000000000000000000000000815260040161064b90612cce565b60405180910390fd5b61065f838383610f53565b505050565b61067f838383604051806020016040528060008152506109fd565b505050565b6000806002600084815260200190815260200160002060009054906101000a900473ffffffffffffffffffffffffffffffffffffffff169050600073ffffffffffffffffffffffffffffffffffffffff168173ffffffffffffffffffffffffffffffffffffffff16141561072d576040517f08c379a000000000000000000000000000000000000000000000000000000000815260040161072490612bce565b60405180910390fd5b80915050919050565b600061074260076111af565b90506000610770838560405160200161075c92919061297c565b6040516020818303038152906040526111bd565b905060008160405160200161078591906129c1565b60405160208183030381529060405290506107d46040518060400160405280601581526020017f0a2d2d2d2d2d2d2d2d2d2d2d2d2d2d2d2d2d2d2d2d0000000000000000000000815250610c45565b6107dd81610c45565b61081b6040518060400160405280601581526020017f2d2d2d2d2d2d2d2d2d2d2d2d2d2d2d2d2d2d2d2d0a0000000000000000000000815250610c45565b610825868461137b565b61082f8382611399565b61085260405180606001604052806025815260200161317e60259139848861140d565b61085c60076114ac565b7f72e7e1a1931828769141a72aa1ab19e54b2e00b44aa2883198b2aad70a50e475868460405161088d929190612a4a565b60405180910390a1505050505050565b60008073ffffffffffffffffffffffffffffffffffffffff168273ffffffffffffffffffffffffffffffffffffffff16141561090e576040517f08c379a000000000000000000000000000000000000000000000000000000000815260040161090590612bae565b60405180910390fd5b600360008373ffffffffffffffffffffffffffffffffffffffff1673ffffffffffffffffffffffffffffffffffffffff168152602001908152602001600020549050919050565b60606001805461096490612fa8565b80601f016020809104026020016040519081016040528092919081815260200182805461099090612fa8565b80156109dd5780601f106109b2576101008083540402835291602001916109dd565b820191906000526020600020905b8154815290600101906020018083116109c057829003601f168201915b5050505050905090565b6109f96109f2610db4565b83836114c2565b5050565b610a0e610a08610db4565b83610e75565b610a4d576040517f08c379a0000000000000000000000000000000000000000000000000000000008152600401610a4490612cce565b60405180910390fd5b610a598484848461162f565b50505050565b6060610a6a82610d48565b610aa9576040517f08c379a0000000000000000000000000000000000000000000000000000000008152600401610aa090612c2e565b60405180910390fd5b6000600660008481526020019081526020016000208054610ac990612fa8565b80601f0160208091040260200160405190810160405280929190818152602001828054610af590612fa8565b8015610b425780601f10610b1757610100808354040283529160200191610b42565b820191906000526020600020905b815481529060010190602001808311610b2557829003601f168201915b505050505090506000610b5361168b565b9050600081511415610b69578192505050610bac565b600082511115610b9e578082604051602001610b86929190612958565b60405160208183030381529060405292505050610bac565b610ba7846116a2565b925050505b919050565b6000600560008473ffffffffffffffffffffffffffffffffffffffff1673ffffffffffffffffffffffffffffffffffffffff16815260200190815260200160002060008373ffffffffffffffffffffffffffffffffffffffff1673ffffffffffffffffffffffffffffffffffffffff16815260200190815260200160002060009054906101000a900460ff16905092915050565b610cdb81604051602401610c599190612a8e565b6040516020818303038152906040527f41304fac000000000000000000000000000000000000000000000000000000007bffffffffffffffffffffffffffffffffffffffffffffffffffffffff19166020820180517bffffffffffffffffffffffffffffffffffffffffffffffffffffffff8381831617835250505050611749565b50565b60007f01ffc9a7000000000000000000000000000000000000000000000000000000007bffffffffffffffffffffffffffffffffffffffffffffffffffffffff1916827bffffffffffffffffffffffffffffffffffffffffffffffffffffffff1916149050919050565b60008073ffffffffffffffffffffffffffffffffffffffff166002600084815260200190815260200160002060009054906101000a900473ffffffffffffffffffffffffffffffffffffffff1673ffffffffffffffffffffffffffffffffffffffff1614159050919050565b600033905090565b816004600083815260200190815260200160002060006101000a81548173ffffffffffffffffffffffffffffffffffffffff021916908373ffffffffffffffffffffffffffffffffffffffff160217905550808273ffffffffffffffffffffffffffffffffffffffff16610e2f83610684565b73ffffffffffffffffffffffffffffffffffffffff167f8c5be1e5ebec7d5bd14f71427d1e84f3dd0314c0f7b2291e5b200ac8c7c3b92560405160405180910390a45050565b6000610e8082610d48565b610ebf576040517f08c379a0000000000000000000000000000000000000000000000000000000008152600401610eb690612b6e565b60405180910390fd5b6000610eca83610684565b90508073ffffffffffffffffffffffffffffffffffffffff168473ffffffffffffffffffffffffffffffffffffffff161480610f3957508373ffffffffffffffffffffffffffffffffffffffff16610f2184610467565b73ffffffffffffffffffffffffffffffffffffffff16145b80610f4a5750610f498185610bb1565b5b91505092915050565b8273ffffffffffffffffffffffffffffffffffffffff16610f7382610684565b73ffffffffffffffffffffffffffffffffffffffff1614610fc9576040517f08c379a0000000000000000000000000000000000000000000000000000000008152600401610fc090612c6e565b60405180910390fd5b600073ffffffffffffffffffffffffffffffffffffffff168273ffffffffffffffffffffffffffffffffffffffff161415611039576040517f08c379a000000000000000000000000000000000000000000000000000000000815260040161103090612b2e565b60405180910390fd5b611044838383611772565b61104f600082610dbc565b6001600360008573ffffffffffffffffffffffffffffffffffffffff1673ffffffffffffffffffffffffffffffffffffffff168152602001908152602001600020600082825461109f9190612ebe565b925050819055506001600360008473ffffffffffffffffffffffffffffffffffffffff1673ffffffffffffffffffffffffffffffffffffffff16815260200190815260200160002060008282546110f69190612ddd565b92505081905550816002600083815260200190815260200160002060006101000a81548173ffffffffffffffffffffffffffffffffffffffff021916908373ffffffffffffffffffffffffffffffffffffffff160217905550808273ffffffffffffffffffffffffffffffffffffffff168473ffffffffffffffffffffffffffffffffffffffff167fddf252ad1be2c89b69c2b068fc378daa952ba7f163c4a11628f55a4df523b3ef60405160405180910390a4505050565b600081600001549050919050565b606060008251905060008114156111e65760405180602001604052806000815250915050611376565b600060036002836111f79190612ddd565b6112019190612e33565b600461120d9190612e64565b9050600060208261121e9190612ddd565b67ffffffffffffffff81111561125d577f4e487b7100000000000000000000000000000000000000000000000000000000600052604160045260246000fd5b6040519080825280601f01601f19166020018201604052801561128f5781602001600182028036833780820191505090505b50905060006040518060600160405280604081526020016131a3604091399050600181016020830160005b868110156113335760038101905062ffffff818a015116603f8160121c168401518060081b905060ff603f83600c1c1686015116810190508060081b905060ff603f8360061c1686015116810190508060081b905060ff603f831686015116810190508060e01b905080845260048401935050506112ba565b50600386066001811461134d576002811461135d57611368565b613d3d60f01b6002830352611368565b603d60f81b60018303525b508484525050819450505050505b919050565b611395828260405180602001604052806000815250611777565b5050565b6113a282610d48565b6113e1576040517f08c379a00000000000000000000000000000000000000000000000000000000081526004016113d890612bee565b60405180910390fd5b80600660008481526020019081526020016000209080519060200190611408929190611cf7565b505050565b6114a783838360405160240161142593929190612ab0565b6040516020818303038152906040527fe3849f79000000000000000000000000000000000000000000000000000000007bffffffffffffffffffffffffffffffffffffffffffffffffffffffff19166020820180517bffffffffffffffffffffffffffffffffffffffffffffffffffffffff8381831617835250505050611749565b505050565b6001816000016000828254019250508190555050565b8173ffffffffffffffffffffffffffffffffffffffff168373ffffffffffffffffffffffffffffffffffffffff161415611531576040517f08c379a000000000000000000000000000000000000000000000000000000000815260040161152890612b4e565b60405180910390fd5b80600560008573ffffffffffffffffffffffffffffffffffffffff1673ffffffffffffffffffffffffffffffffffffffff16815260200190815260200160002060008473ffffffffffffffffffffffffffffffffffffffff1673ffffffffffffffffffffffffffffffffffffffff16815260200190815260200160002060006101000a81548160ff0219169083151502179055508173ffffffffffffffffffffffffffffffffffffffff168373ffffffffffffffffffffffffffffffffffffffff167f17307eab39ab6107e8899845ad3d59bd9653f200f220920489ca2b5937696c31836040516116229190612a73565b60405180910390a3505050565b61163a848484610f53565b611646848484846117d2565b611685576040517f08c379a000000000000000000000000000000000000000000000000000000000815260040161167c90612aee565b60405180910390fd5b50505050565b606060405180602001604052806000815250905090565b60606116ad82610d48565b6116ec576040517f08c379a00000000000000000000000000000000000000000000000000000000081526004016116e390612c8e565b60405180910390fd5b60006116f661168b565b905060008151116117165760405180602001604052806000815250611741565b8061172084611969565b604051602001611731929190612958565b6040516020818303038152906040525b915050919050565b60008151905060006a636f6e736f6c652e6c6f679050602083016000808483855afa5050505050565b505050565b6117818383611b16565b61178e60008484846117d2565b6117cd576040517f08c379a00000000000000000000000000000000000000000000000000000000081526004016117c490612aee565b60405180910390fd5b505050565b60006117f38473ffffffffffffffffffffffffffffffffffffffff16611ce4565b1561195c578373ffffffffffffffffffffffffffffffffffffffff1663150b7a0261181c610db4565b8786866040518563ffffffff1660e01b815260040161183e94939291906129fe565b602060405180830381600087803b15801561185857600080fd5b505af192505050801561188957506040513d601f19601f820116820180604052508101906118869190612122565b60015b61190c573d80600081146118b9576040519150601f19603f3d011682016040523d82523d6000602084013e6118be565b606091505b50600081511415611904576040517f08c379a00000000000000000000000000000000000000000000000000000000081526004016118fb90612aee565b60405180910390fd5b805181602001fd5b63150b7a0260e01b7bffffffffffffffffffffffffffffffffffffffffffffffffffffffff1916817bffffffffffffffffffffffffffffffffffffffffffffffffffffffff191614915050611961565b600190505b949350505050565b606060008214156119b1576040518060400160405280600181526020017f30000000000000000000000000000000000000000000000000000000000000008152509050611b11565b600082905060005b600082146119e35780806119cc90612fda565b915050600a826119dc9190612e33565b91506119b9565b60008167ffffffffffffffff811115611a25577f4e487b7100000000000000000000000000000000000000000000000000000000600052604160045260246000fd5b6040519080825280601f01601f191660200182016040528015611a575781602001600182028036833780820191505090505b5090505b60008514611b0a57600182611a709190612ebe565b9150600a85611a7f9190613023565b6030611a8b9190612ddd565b60f81b818381518110611ac7577f4e487b7100000000000000000000000000000000000000000000000000000000600052603260045260246000fd5b60200101907effffffffffffffffffffffffffffffffffffffffffffffffffffffffffffff1916908160001a905350600a85611b039190612e33565b9450611a5b565b8093505050505b919050565b600073ffffffffffffffffffffffffffffffffffffffff168273ffffffffffffffffffffffffffffffffffffffff161415611b86576040517f08c379a0000000000000000000000000000000000000000000000000000000008152600401611b7d90612c0e565b60405180910390fd5b611b8f81610d48565b15611bcf576040517f08c379a0000000000000000000000000000000000000000000000000000000008152600401611bc690612b0e565b60405180910390fd5b611bdb60008383611772565b6001600360008473ffffffffffffffffffffffffffffffffffffffff1673ffffffffffffffffffffffffffffffffffffffff1681526020019081526020016000206000828254611c2b9190612ddd565b92505081905550816002600083815260200190815260200160002060006101000a81548173ffffffffffffffffffffffffffffffffffffffff021916908373ffffffffffffffffffffffffffffffffffffffff160217905550808273ffffffffffffffffffffffffffffffffffffffff16600073ffffffffffffffffffffffffffffffffffffffff167fddf252ad1be2c89b69c2b068fc378daa952ba7f163c4a11628f55a4df523b3ef60405160405180910390a45050565b600080823b905060008111915050919050565b828054611d0390612fa8565b90600052602060002090601f016020900481019282611d255760008555611d6c565b82601f10611d3e57805160ff1916838001178555611d6c565b82800160010185558215611d6c579182015b82811115611d6b578251825591602001919060010190611d50565b5b509050611d799190611d7d565b5090565b5b80821115611d96576000816000905550600101611d7e565b5090565b6000611dad611da884612d3a565b612d09565b905082815260208101848484011115611dc557600080fd5b611dd0848285612f66565b509392505050565b6000611deb611de684612d6a565b612d09565b905082815260208101848484011115611e0357600080fd5b611e0e848285612f66565b509392505050565b600081359050611e2581613121565b92915050565b600081359050611e3a81613138565b92915050565b600081359050611e4f8161314f565b92915050565b600081519050611e648161314f565b92915050565b600082601f830112611e7b57600080fd5b8135611e8b848260208601611d9a565b91505092915050565b600082601f830112611ea557600080fd5b8135611eb5848260208601611dd8565b91505092915050565b600081359050611ecd81613166565b92915050565b600060208284031215611ee557600080fd5b6000611ef384828501611e16565b91505092915050565b60008060408385031215611f0f57600080fd5b6000611f1d85828601611e16565b9250506020611f2e85828601611e16565b9150509250929050565b600080600060608486031215611f4d57600080fd5b6000611f5b86828701611e16565b9350506020611f6c86828701611e16565b9250506040611f7d86828701611ebe565b9150509250925092565b60008060008060808587031215611f9d57600080fd5b6000611fab87828801611e16565b9450506020611fbc87828801611e16565b9350506040611fcd87828801611ebe565b925050606085013567ffffffffffffffff811115611fea57600080fd5b611ff687828801611e6a565b91505092959194509250565b6000806040838503121561201557600080fd5b600061202385828601611e16565b925050602061203485828601611e2b565b9150509250929050565b60008060006060848603121561205357600080fd5b600061206186828701611e16565b935050602084013567ffffffffffffffff81111561207e57600080fd5b61208a86828701611e94565b925050604084013567ffffffffffffffff8111156120a757600080fd5b6120b386828701611e94565b9150509250925092565b600080604083850312156120d057600080fd5b60006120de85828601611e16565b92505060206120ef85828601611ebe565b9150509250929050565b60006020828403121561210b57600080fd5b600061211984828501611e40565b91505092915050565b60006020828403121561213457600080fd5b600061214284828501611e55565b91505092915050565b60006020828403121561215d57600080fd5b600061216b84828501611ebe565b91505092915050565b61217d81612ef2565b82525050565b61218c81612f04565b82525050565b600061219d82612d9a565b6121a78185612db0565b93506121b7818560208601612f75565b6121c081613110565b840191505092915050565b60006121d682612da5565b6121e08185612dc1565b93506121f0818560208601612f75565b6121f981613110565b840191505092915050565b600061220f82612da5565b6122198185612dd2565b9350612229818560208601612f75565b80840191505092915050565b6000612242603283612dc1565b91507f4552433732313a207472616e7366657220746f206e6f6e20455243373231526560008301527f63656976657220696d706c656d656e74657200000000000000000000000000006020830152604082019050919050565b60006122a8601c83612dc1565b91507f4552433732313a20746f6b656e20616c7265616479206d696e746564000000006000830152602082019050919050565b60006122e8602483612dc1565b91507f4552433732313a207472616e7366657220746f20746865207a65726f2061646460008301527f72657373000000000000000000000000000000000000000000000000000000006020830152604082019050919050565b600061234e601983612dc1565b91507f4552433732313a20617070726f766520746f2063616c6c6572000000000000006000830152602082019050919050565b600061238e602a83612dd2565b91507f222c20226465736372697074696f6e223a202247696674204361726473222c2060008301527f22696d616765223a2022000000000000000000000000000000000000000000006020830152602a82019050919050565b60006123f4602c83612dc1565b91507f4552433732313a206f70657261746f7220717565727920666f72206e6f6e657860008301527f697374656e7420746f6b656e00000000000000000000000000000000000000006020830152604082019050919050565b600061245a603883612dc1565b91507f4552433732313a20617070726f76652063616c6c6572206973206e6f74206f7760008301527f6e6572206e6f7220617070726f76656420666f7220616c6c00000000000000006020830152604082019050919050565b60006124c0602a83612dc1565b91507f4552433732313a2062616c616e636520717565727920666f7220746865207a6560008301527f726f2061646472657373000000000000000000000000000000000000000000006020830152604082019050919050565b6000612526602983612dc1565b91507f4552433732313a206f776e657220717565727920666f72206e6f6e657869737460008301527f656e7420746f6b656e00000000000000000000000000000000000000000000006020830152604082019050919050565b600061258c602e83612dc1565b91507f45524337323155524953746f726167653a2055524920736574206f66206e6f6e60008301527f6578697374656e7420746f6b656e0000000000000000000000000000000000006020830152604082019050919050565b60006125f2600283612dd2565b91507f227d0000000000000000000000000000000000000000000000000000000000006000830152600282019050919050565b6000612632602083612dc1565b91507f4552433732313a206d696e7420746f20746865207a65726f20616464726573736000830152602082019050919050565b6000612672603183612dc1565b91507f45524337323155524953746f726167653a2055524920717565727920666f722060008301527f6e6f6e6578697374656e7420746f6b656e0000000000000000000000000000006020830152604082019050919050565b60006126d8602c83612dc1565b91507f4552433732313a20617070726f76656420717565727920666f72206e6f6e657860008301527f697374656e7420746f6b656e00000000000000000000000000000000000000006020830152604082019050919050565b600061273e602983612dc1565b91507f4552433732313a207472616e73666572206f6620746f6b656e2074686174206960008301527f73206e6f74206f776e00000000000000000000000000000000000000000000006020830152604082019050919050565b60006127a4602f83612dc1565b91507f4552433732314d657461646174613a2055524920717565727920666f72206e6f60008301527f6e6578697374656e7420746f6b656e00000000000000000000000000000000006020830152604082019050919050565b600061280a600a83612dd2565b91507f7b226e616d65223a2022000000000000000000000000000000000000000000006000830152600a82019050919050565b600061284a602183612dc1565b91507f4552433732313a20617070726f76616c20746f2063757272656e74206f776e6560008301527f72000000000000000000000000000000000000000000000000000000000000006020830152604082019050919050565b60006128b0601d83612dd2565b91507f646174613a6170706c69636174696f6e2f6a736f6e3b6261736536342c0000006000830152601d82019050919050565b60006128f0603183612dc1565b91507f4552433732313a207472616e736665722063616c6c6572206973206e6f74206f60008301527f776e6572206e6f7220617070726f7665640000000000000000000000000000006020830152604082019050919050565b61295281612f5c565b82525050565b60006129648285612204565b91506129708284612204565b91508190509392505050565b6000612987826127fd565b91506129938285612204565b915061299e82612381565b91506129aa8284612204565b91506129b5826125e5565b91508190509392505050565b60006129cc826128a3565b91506129d88284612204565b915081905092915050565b60006020820190506129f86000830184612174565b92915050565b6000608082019050612a136000830187612174565b612a206020830186612174565b612a2d6040830185612949565b8181036060830152612a3f8184612192565b905095945050505050565b6000604082019050612a5f6000830185612174565b612a6c6020830184612949565b9392505050565b6000602082019050612a886000830184612183565b92915050565b60006020820190508181036000830152612aa881846121cb565b905092915050565b60006060820190508181036000830152612aca81866121cb565b9050612ad96020830185612949565b612ae66040830184612174565b949350505050565b60006020820190508181036000830152612b0781612235565b9050919050565b60006020820190508181036000830152612b278161229b565b9050919050565b60006020820190508181036000830152612b47816122db565b9050919050565b60006020820190508181036000830152612b6781612341565b9050919050565b60006020820190508181036000830152612b87816123e7565b9050919050565b60006020820190508181036000830152612ba78161244d565b9050919050565b60006020820190508181036000830152612bc7816124b3565b9050919050565b60006020820190508181036000830152612be781612519565b9050919050565b60006020820190508181036000830152612c078161257f565b9050919050565b60006020820190508181036000830152612c2781612625565b9050919050565b60006020820190508181036000830152612c4781612665565b9050919050565b60006020820190508181036000830152612c67816126cb565b9050919050565b60006020820190508181036000830152612c8781612731565b9050919050565b60006020820190508181036000830152612ca781612797565b9050919050565b60006020820190508181036000830152612cc78161283d565b9050919050565b60006020820190508181036000830152612ce7816128e3565b9050919050565b6000602082019050612d036000830184612949565b92915050565b6000604051905081810181811067ffffffffffffffff82111715612d3057612d2f6130e1565b5b8060405250919050565b600067ffffffffffffffff821115612d5557612d546130e1565b5b601f19601f8301169050602081019050919050565b600067ffffffffffffffff821115612d8557612d846130e1565b5b601f19601f8301169050602081019050919050565b600081519050919050565b600081519050919050565b600082825260208201905092915050565b600082825260208201905092915050565b600081905092915050565b6000612de882612f5c565b9150612df383612f5c565b9250827fffffffffffffffffffffffffffffffffffffffffffffffffffffffffffffffff03821115612e2857612e27613054565b5b828201905092915050565b6000612e3e82612f5c565b9150612e4983612f5c565b925082612e5957612e58613083565b5b828204905092915050565b6000612e6f82612f5c565b9150612e7a83612f5c565b9250817fffffffffffffffffffffffffffffffffffffffffffffffffffffffffffffffff0483118215151615612eb357612eb2613054565b5b828202905092915050565b6000612ec982612f5c565b9150612ed483612f5c565b925082821015612ee757612ee6613054565b5b828203905092915050565b6000612efd82612f3c565b9050919050565b60008115159050919050565b60007fffffffff0000000000000000000000000000000000000000000000000000000082169050919050565b600073ffffffffffffffffffffffffffffffffffffffff82169050919050565b6000819050919050565b82818337600083830152505050565b60005b83811015612f93578082015181840152602081019050612f78565b83811115612fa2576000848401525b50505050565b60006002820490506001821680612fc057607f821691505b60208210811415612fd457612fd36130b2565b5b50919050565b6000612fe582612f5c565b91507fffffffffffffffffffffffffffffffffffffffffffffffffffffffffffffffff82141561301857613017613054565b5b600182019050919050565b600061302e82612f5c565b915061303983612f5c565b92508261304957613048613083565b5b828206905092915050565b7f4e487b7100000000000000000000000000000000000000000000000000000000600052601160045260246000fd5b7f4e487b7100000000000000000000000000000000000000000000000000000000600052601260045260246000fd5b7f4e487b7100000000000000000000000000000000000000000000000000000000600052602260045260246000fd5b7f4e487b7100000000000000000000000000000000000000000000000000000000600052604160045260246000fd5b6000601f19601f8301169050919050565b61312a81612ef2565b811461313557600080fd5b50565b61314181612f04565b811461314c57600080fd5b50565b61315881612f10565b811461316357600080fd5b50565b61316f81612f5c565b811461317a57600080fd5b5056fe416e204e465420772f20494420257320686173206265656e206d696e74656420746f2025734142434445464748494a4b4c4d4e4f505152535455565758595a6162636465666768696a6b6c6d6e6f707172737475767778797a303132333435363738392b2fa264697066735822122014e57b84ec99cd5c7da3b59741e68cffc56afa963edc03c0fe845d702fabc11d64736f6c63430008000033",
  "linkReferences": {},
  "deployedLinkReferences": {}
}